:020000040800F2
:10000000984900205D0200086102000863020008B0
:10001000650200086702000869020008000000008D
:10002000000000000000000000000000D1010008F6
:100030006D0200080000000005020008310F0008F2
:1000400073020008730200087302000873020008BC
:1000500073020008730200087302000873020008AC
:10006000730200087302000873020008730200089C
:10007000730200087302000873020008730200088C
:10008000730200087302000873020008730200087C
:10009000730200087302000873020008730200086C
:1000A000730200087302000873020008730200085C
:1000B000730200087302000873020008730200084C
:1000C000730200087302000873020008730200083C
:1000D000730200087302000873020008730200082C
:1000E000730200087302000873020008730200081C
:1000F000730200087302000873020008730200080C
:1001000073020008730200087302000873020008FB
:1001100073020008730200087302000873020008EB
:1001200073020008730200087302000873020008DB
:1001300000F002F800F03CF80AA090E8000C8244BD
:100140008344AAF10107DA4501D100F031F8AFF29A
:10015000090EBAE80F0013F0010F18BFFB1A43F0A5
:1001600001031847A0200000C0200000103A24BF5F
:1001700078C878C1FAD8520724BF30C830C144BF0C
:1001800004680C607047000000230024002500264E
:10019000103A28BF78C1FBD8520728BF30C148BFEA
:1001A0000B6070471FB502F026F81FBD10B510BDDB
:1001B00001F0E7FF1146FFF7F5FF01F0B3FE02F093
:1001C00005F803B4FFF7F2FF03BC02F00DF80000DE
:1001D0001A4B19680868B0E8F00F80F309884FF0EF
:1001E000000080F311884EF00D0E704700000000F3
:1001F00003480068006880F3088862B600DF00BF2B
:1002000008ED00E0EFF309800C4B1A6820E9F00FCD
:10021000106008B54FF0BF0080F3118800F079FB43
:100220004FF0000080F31188BDE8084019680868A5
:10023000B0E8F00F80F30988704700BF000000208D
:1002400001B44FF0BF0080F3118801BC704701B4C6
:100250004FF0000080F3118801BC70470848004748
:10026000FEE7FEE7FEE7FEE7FEE7FEE7FEE7FEE766
:10027000FEE7FEE703480449024A044B70470000CA
:100280003101000898450020984900209845002039
:1002900000F1080141604FF0FF31816000F1080179
:1002A000C16001614FF00001016070474FF0000133
:1002B00001617047426853684B6043688B605368C4
:1002C0009960516041600861036803F101030360B4
:1002D000704710B502460B685C1C01D1106907E03D
:1002E00002F1080000E04068446824689C42FAD9A2
:1002F00044684C604C68A160886041600A61146881
:1003000004F10104146010BDD0E901329A60D0E913
:1003100001235A6001694A68824201D182684A60B9
:100320004FF0000202610A68A2F101020A60704700
:1003300010B54FF0000408E004EB8401FE4A02EB24
:100340008100FFF7A5FF04F10104052CF4D3FB485D
:10035000FFF79EFFFA48FFF79BFFFA48FFF798FF69
:10036000F948FFF795FFF948FFF792FFF348F8497E
:100370000860F348F749086010BD2DE9F0410446D4
:100380000E4615469846069F4FF01002314604F17E
:10039000340001F07FFE4FF000014FF043000155A3
:1003A000052D01D34FF00405E562201DFFF77EFF08
:1003B00004F11800FFF77AFF2461C5F10500A06180
:1003C0006462BDE8F08170B505460E464FF044000A
:1003D00000F0CCFC04469CB11EB9A80000F0C6FC9D
:1003E00000E030462063206B28B9204600F026FD4F
:1003F0004FF0000404E0A900A522206B01F042FEAA
:10040000204670BD2DE9FF4F81B0804615469946C4
:10041000DDE90E7A28461099FFF7D5FF0446002C37
:100420005AD0A5F10100216B01EB800B2BF0070BDB
:1004300000953A462046119B0299FFF79EFF4A46D7
:100440004146584600F026FD2060BAF1000F01D069
:10045000CAF8004000F055FDBF48006800F10100F7
:10046000BD490860BD48006840B9BC480460084602
:10047000006801280CD1FFF75BFF09E0B84800686D
:1004800030B9B6480068C06AB84201D8B3480460C1
:10049000B449E06A0968884202D9B249E06A086052
:1004A000B148006800F10100AF490860AF49E06A57
:1004B0000968884202D9AD49E06A0860E16A01EB47
:1004C00081019D4A02EB8100211DFFF7F3FE4FF0F1
:1004D000010600F020FD01E04FF0FF36012E09D1AA
:1004E0009F48006830B19D480068C06AB84201D298
:1004F00000F002FD304605B0BDE8F08F70B504464F
:1005000000F0FFFC95480068844201D14FF00004E0
:1005100014B99248006800E02046054605F1040041
:10052000FFF7F2FEA86A18B105F11800FFF7ECFE1C
:10053000291D8548FFF7BEFE8D48006800F10100C7
:100540008B4908608848006800F10100864908600E
:1005500000F0E1FC8248006810B10CB900F0CCFC5E
:1005600070BD70B583480068002868D18248006873
:1005700000F10100804908600846006810BB74491A
:10058000086874490968724A1160724908607B49B9
:10059000096801F10101794A11606D49096809682A
:1005A00009B9012100E0002121B14FF0FF31744A67
:1005B000116006E066490968C968CC68704A6168DC
:1005C000116000BF6C4800686D490968884235D3E6
:1005D00000BF5F480068006808B9012000E0002003
:1005E00020B14FF0FF306649086026E058480068A7
:1005F000C068C468656860480068A84202D2604864
:1006000005601AE0201DFFF77FFEA06A18B104F113
:100610001800FFF779FE5549E06A0968884202D957
:100620005249E06A0860E16A01EB8101424A02EB4B
:100630008100211DFFF73EFECBE700BF05E05148DA
:10064000006800F101004F49086070BD70B54FF0BF
:10065000000500F056FC47480068A0F1010045493C
:10066000086008460068002851D13B48006800280F
:100670004DD02E4622E03348C068C46804F118000B
:10068000FFF742FE201DFFF73FFE3849E06A096888
:10069000884202D93549E06A0860E16A01EB8101CC
:1006A000254A02EB8100211DFFF704FE2B49E06A79
:1006B0000968C96A884201D34FF0010621480068E1
:1006C00008B9012000E000200028D4D02D4800689F
:1006D00070B107E0FFF745FF2A480068A0F101006C
:1006E00028490860274800680028F3D14FF0010628
:1006F000012E03D024480068012807D14FF00105DE
:100700004FF000002049086000F0F6FB00BF00F049
:1007100002FC284670BD10B50446104800684460CD
:1007200015480068844231D20C480168091D094807
:100730000068FFF7CEFD36E06C000020D0000020FE
:10074000E4000020F80000200C010020200100201F
:1007500034000020380000200800002000000020A5
:1007600018000020100000202C00002014000020A1
:10077000040000201C0000200C00002028000020A5
:10078000300000202000002024000020FE480168E6
:10079000091DFE480068FFF79CFDFD480068844283
:1007A00001D2FB48046010BDFA48006800F1010066
:1007B000F849086070472DE9F04104460F464FF0B4
:1007C0000008FFF7F1FF206800EB0705F2492068F9
:1007D0000968884209D92068A8420FD9EE48006804
:1007E00085420BD94FF0010808E02068A84203D8E1
:1007F000E9480068854201D94FF001082560B8F149
:10080000000F07D0E0480068001DFFF77DFD284677
:10081000FFF781FFFFF71AFF06460EB900F06CFBE9
:10082000BDE8F08170B504464FF000068CB1FFF7CB
:10083000BBFFD948006800EB0405D348006800F10D
:100840000400FFF761FD2846FFF765FFFFF7FEFE96
:1008500006460EB900F050FB70BD70B5044600F0BE
:1008600050FB14B9C848006800E020460646F56A07
:1008700000F051FB284670BD2DE9F04106460D46BB
:100880004FF00008052D01D34FF0040500F039FBAF
:10089000BD480068864201D14FF0000616B9BA483B
:1008A000006800E030460446E76AAF422DD0BD4202
:1008B00003D92EB14FF0010802E00EB94FF0010844
:1008C000E562C5F10500A06107EB8701B34A02EBC1
:1008D00081016069884213D1201DFFF715FDB049E1
:1008E000E06A0968884202D9AD49E06A0860E16AB5
:1008F00001EB8101A94A02EB8100211DFFF7DAFC1F
:10090000B8F1010F01D100F0F7FA00F004FBBDE8E7
:10091000F081A048006820B14FF00100A1490860B3
:1009200026E005E09E480068A0F101009C490860AF
:100930009B48006800EB8000984951F8200000288F
:10094000F0D09749096801EB8101944A02EB8100DC
:1009500041684968416000F1080142688A4202D159
:100960004168496841604168C968874A116000BFB1
:10097000704770B5044600F0C4FA834800688442AA
:1009800001D14FF0000414B97F48006800E0204610
:10099000054605F10400FFF7B7FCA86A18B105F198
:1009A0001800FFF7B1FC291D7F48FFF783FC00F01A
:1009B000B2FA84B97D48006810B100F09DFA0AE0EF
:1009C0007B480068012804D14FF000006E490860A0
:1009D00001E0FFF79EFF70BD10B501464FF000002B
:1009E0000A46714C5369A34201D1012300E0002360
:1009F00083B1704C936AA34201D1012300E000232C
:100A0000012B07D0936A0BB9012300E00023012BCF
:100A100000D1184610BD70B505462C4644B35A485F
:100A20000068844224D000F06CFA2046FFF7D4FF1F
:100A300001281BD1201DFFF767FC5949E06A0968AE
:100A4000884202D95649E06A0860E16A01EB8101F7
:100A5000524A02EB8100211DFFF72CFC4A49E06A53
:100A60000968C96A884201D300F046FA00F053FAD7
:100A700070BD70B505464FF000062C462046FFF7C6
:100A8000ABFF012829D14348006808BB3E49E06A12
:100A90000968C96A884202D34FF0010001E04FF0B3
:100AA0000000064604F10400FFF72EFC3C49E06A12
:100AB0000968884202D93A49E06A0860E16A01EBB4
:100AC0008101364A02EB8100211DFFF7F3FB04E0B0
:100AD00004F118013748FFF7EDFB304670BD10B543
:100AE0000446206B00F0AAF9204600F0A7F910BDDB
:100AF00070B53148006838B3FFF756FE2F480068DC
:100B000010B94FF0010001E04FF000000546FFF77B
:100B10009DFDCDB900F0F5F92848C068C468201DD6
:100B2000FFF7F2FB22480068A0F1010020490860AD
:100B300021480068A0F101001F49086000F0EBF9AE
:100B40002046FFF7CCFF00BF70BD00BFFFF7D0FF0E
:100B5000124800680128F9D900F0CEF9F6E71FB570
:100B600000200090019002900346802214A103907F
:100B70001548FFF747FC0446012C2DD1FFF760FB19
:100B800020460A49086021E00000002034000020CF
:100B9000300000201C0000200C0000206C00002011
:100BA0001400002024000020200100201800002054
:100BB00008000020F8000020040000200C010020A4
:100BC00049444C45000000004B0B00084FF000006A
:100BD0005B49086000F079F91FBD10B5FFF730FBE5
:100BE0004FF000005749086000F085F910BD10B5BE
:100BF00000F087F95248046800F08DF9204610BDD6
:100C000070B54FF00005FFF71BFB4D480468FFF778
:100C10001EFB204670BD4C480068704770B5064604
:100C20000C464A48016801F118013046FFF751FBB4
:100C300046480068001DFFF767FB601C06D143486B
:100C40000168091D4248FFF735FB06E03C48006893
:100C500000EB04052846FFF75EFD70BD70B5064643
:100C6000F068C46804F11800FFF74EFB39480068CB
:100C7000A0B9201DFFF748FB3749E06A09688842A0
:100C800002D93549E06A0860E16A01EB8101334A23
:100C900002EB8100211DFFF70DFB04E004F11801B8
:100CA0002F48FFF707FB2949E06A0968C96A8842AB
:100CB00002D34FF0010501E04FF00005284670BD5A
:100CC0002849096801601E4909684160704770B58C
:100CD00004460D4600F015F92868401C01D106466F
:100CE00024E0204920680968884207D014496068D8
:100CF0000968884202D84FF0010617E01049606881
:100D00000968081A296888420ED228680C4A616866
:100D10001268A2EB0101A0EB010028602046FFF75A
:100D2000CFFF4FF0000601E04FF0010600F0F3F8AE
:100D3000304670BD4FF001000B490860704700005D
:100D40000C000020180000200800002000000020F7
:100D5000200100201C000020140000206C00002056
:100D6000F800002028000020240000202DE9F04198
:100D700004464FF00008FFF717FD41480068A8B986
:100D80004049414A1160414651604FF488413F4A11
:100D900051604FF0000111603A484FF488414160C2
:100DA000114601604FF00100354908604CB104F173
:100DB000100414F0070F04D004F00700C0F108007D
:100DC0000444002C35D0B4F5884F32D22E4F38462B
:100DD000056801E02F462D686868A04202D22868A5
:100DE0000028F7D12948854223D0386800F110083F
:100DF000286838606868A0EB0400202812D905EB49
:100E000004066868A0EB040070606C6071681E489E
:100E100000E00068026852688A42FAD302683260D1
:100E2000066000BF1A4968680968A1EB000018490C
:100E30000860FFF70BFC4046BDE8F08170B5064640
:100E40003546BEB1A5F110052C46FFF7ADFC616833
:100E50000D4800E00068026852688A42FAD30268CE
:100E6000226004600A49606809680844084908600B
:100E7000FFF7ECFB70BD0648006870477047000044
:100E80004000002038010020440000204C000020D9
:100E90003C000020A0F104004FF080730360A0F13B
:100EA00004000160A0F104004FF000030360A0F112
:100EB00014000260A0F12000704724484FF0E021A8
:100EC00048614FF007000861704710B5204800687E
:100ED00040F47F001E4908600846006840F07F40EB
:100EE0000860FFF7EAFF4FF000001A490860FFF7BB
:100EF0007FF9002010BD70474FF080501649086000
:100F0000704710B5FFF79CF91248006800F1010026
:100F10001049086010BD10B50E480068A0F101002E
:100F20000C4908600846006808B9FFF790F910BD41
:100F300010B54FF08050084908604FF00004FFF7EB
:100F40007FF9FFF70EFBFFF782F910BD3F19010093
:100F500020ED00E05400002004ED00E0384940EAB4
:100F60000101384A1160704770B54FF000010B461F
:100F70004FF00F02C4784CB3324C246804F4E064A0
:100F8000C4F5E0644FEA1421C1F1040322FA01F22E
:100F9000447804FA03F1847804EA020444EA010183
:100FA0004FEA0111284C0678A155047804F01F057A
:100FB0004FF0010404FA05F405784FEA65154FF087
:100FC000E02606EB8505C5F800410CE0047804F046
:100FD0001F054FF0010404FA05F41C4D06784FEA92
:100FE000661645F8264070BD194A01EA020242EA37
:100FF0000002184B1A60704731B1174A126842EA72
:101000000002154B1A6005E0134A126822EA00023A
:10101000114B1A607047042808D14FF0E02109698C
:1010200041F004014FF0E022116107E04FF0E021B0
:10103000096921F004014FF0E022116170470000BE
:101040000000FA050CED00E000E400E080E100E0C3
:1010500080FFFF1F08ED00E010ED00E010B5044632
:10106000DE48844208D10121042000F07FFB0021EA
:10107000042000F07BFB46E0D948844208D10121DE
:10108000082000F073FB0021082000F06FFB3AE01D
:10109000D448844208D10121102000F067FB0021D0
:1010A000102000F063FB2EE0CF48844208D10121DC
:1010B000202000F05BFB0021202000F057FB22E005
:1010C000CA48844208D10121402000F04FFB002192
:1010D000402000F04BFB16E0C548844208D10121B6
:1010E000802000F043FB0021802000F03FFB0AE05D
:1010F000C048844207D10121801500F037FB002150
:10110000A01500F033FB10BD10B50121084600F01A
:101110002DFB0021012000F029FB10BD2DE9F0413D
:1011200002464FF000052E46284603460446074671
:1011300091F803C00CF00F0591F803C01CF0100FDC
:1011400003D091F802C04CEA0505B1F800C01CF0CC
:10115000FF0F35D014684FF000002EE04FF0010C67
:101160000CFA00F3B1F800C00CEA03069E4222D14B
:101170004FEA80034FF00F0C0CFA03F724EA070440
:1011800005FA03FC4CEA040491F803C0BCF1280FF3
:1011900006D14FF0010C0CFA00FCC2F814C00AE0B2
:1011A00091F803C0BCF1480F05D14FF0010C0CFAC7
:1011B00000FCC2F810C000F101000828CED3146072
:1011C000B1F800C0BCF1FF0F38DD54684FF00000EB
:1011D00031E000F1080C4FF0010808FA0CF3B1F807
:1011E00000C00CEA03069E4223D14FEA80034FF071
:1011F0000F0C0CFA03F724EA070405FA03FC4CEA87
:10120000040491F803C0BCF1280F05D100F1080CCB
:1012100008FA0CF8C2F8148091F803C0BCF1480F2A
:1012200007D100F1080C4FF0010808FA0CF8C2F8D9
:10123000108000F101000828CBD35460BDE8F08194
:101240004FF6FF7101804FF0020181704FF00401F1
:10125000C170704702464FF0000093680B4202D005
:101260004FF0010001E04FF0000070470146886830
:1012700080B2704702464FF00000D3680B4202D0A4
:101280004FF0010001E04FF0000070470146C868D0
:1012900080B2704701617047416170470AB10161D6
:1012A00000E041617047C16070474FF4803242EA0C
:1012B00001028261816182618269826970470246AE
:1012C0004FF000004C4B18684FF6807300EA0300A3
:1012D00040EA021040EA0100474B18607047474956
:1012E000C8617047F0B50A464FF000031C46194626
:1012F0000D4600F00046B6F1004F02D13E4EF169B6
:1013000001E03D4E7168C0F3034583B200F440161E
:10131000B6F5401F08D121F07061374E766826F08F
:101320007066354F7E6017E000F48016B6F5801FBA
:1013300008D14FF0030606FA05F421EA040141F052
:10134000706109E04FEA50564FEA061603FA06F6B6
:1013500021EA060141F070613AB14FEA50564FEA76
:10136000061603FA06F646EA010100F00046B6F159
:10137000004F02D1204EF16101E01F4E7160F0BDBF
:1013800030B54FF000024FEA81734FEA13744FF00B
:101390000F0303FA04F21A4B4FEAA10453F8243066
:1013A00023EA0203164C4FEAA10544F825302346F0
:1013B0004FEAA10453F824304FEA81744FEA1474C1
:1013C00000FA04F443EA04030D4C4FEAA10544F883
:1013D000253030BD0B49086070470000000801400F
:1013E000000C0140001001400014014000180140B1
:1013F000001C01400020014000000140000020428C
:1014000008000140DC002042F748006840F001007D
:10141000F549086008464068F44900EA0100F249CD
:10142000486008460068F24900EA0100EE49086099
:101430000846006820F4802008600846406820F4D0
:10144000FE0048604FF41F0088607047E649096855
:1014500021F48031E44A11601146096821F48021A9
:101460001160B0F5803F03D0B0F5802F0ED106E0BB
:10147000DD49096841F48031DB4A116007E0DA494F
:10148000096841F4A021D84A116000E000BF00BF04
:10149000704710B501464FF00002134610464FEA60
:1014A0006112012A02D1D04C236806E0022A02D13F
:1014B000CD4C236A01E0CC4C636A01F01F024FF06F
:1014C000010404FA02F41C4202D04FF0010001E0D2
:1014D0004FF0000010BD70B54FF0000425462646C1
:1014E00000BF3120FFF7D5FF064604F10104B4F533
:1014F000A06F01D0002EF4D03120FFF7CAFF10B149
:101500004FF0010501E04FF00005284670BD01468F
:101510004FF00000B44A106820F0F80040EAC10023
:1015200010607047B3490860704702464FF00000F2
:10153000AD4B586820F47C1042EA010343EA0000F6
:10154000A94B58607047AB490866704701464FF099
:101550000000A54A506820F0030040EA01005060F6
:101560007047A148406800F00C00704701464FF0FA
:1015700000009D4A506820F0F00040EA01005060F1
:10158000704701464FF00000974A506820F4E06031
:1015900040EA01005060704701464FF00000924A57
:1015A000506820F4605040EAC1005060704731B18B
:1015B0008D4A527A42EA00028B4B5A7208E08A4AFC
:1015C000527A6FEA0003DBB202EA0302864B5A72D8
:1015D000704789490860704701464FF00000824A11
:1015E000506820F4404040EA0100506070474FF0DE
:1015F0000001824A11707C4A82F82010012802D032
:1016000004280AD104E04FF001017C4A117005E082
:101610004FF00501794A117000E000BF00BF70472C
:101620007749086070477049096A41EA00016E4ACB
:101630001162704773490860704730B54FF0000180
:101640000A460C460B46684D6D6805F00C0121B149
:10165000042905D0082927D105E06B4D056026E057
:10166000694D056023E0604D6D6805F470125E4DB4
:101670006D6805F480344FF0020505EB924224B901
:10168000624D02FB05F505600DE0574D6D6815F4E0
:10169000003F04D05D4D02FB05F5056003E05A4DA7
:1016A00002FB05F5056002E0574D056000BF00BF75
:1016B0004D4D6D6805F0F0014FEA1111544D6B5C12
:1016C000056825FA03F54560474D6D6805F4E0614E
:1016D0004FEA11214E4D6B5C456825FA03F5856094
:1016E000414D6D6805F460514FEAD121484D6B5C66
:1016F000456825FA03F5C5603B4D6D6805F440412A
:101700004FEA9131434D6B5CC568B5FBF3F505615C
:1017100030BD31B1344A526942EA0002324B5A615B
:1017200005E0314A526922EA00022F4B5A617047A4
:1017300031B12D4A926942EA00022B4B9A6105E0D1
:10174000294A926922EA0002274B9A61704731B117
:10175000254AD26942EA0002234BDA6105E0224AB7
:10176000D26922EA0002204BDA61704731B11E4A89
:10177000D26842EA00021C4BDA6005E01A4AD268DD
:1017800022EA0002184BDA60704731B1164A12693A
:1017900042EA0002144B1A6105E0134A126922EA78
:1017A0000002114B1A6170471B49086070471149CC
:1017B000C86470470C49C87170470B48406A40F0D4
:1017C000807009494862704701464FF00000064AA0
:1017D00092680A4202D04FF0010001E04FF0000091
:1017E0007047014988727047001002400000FFF8FE
:1017F000FFFFF6FE00004242D800424220100240A5
:10180000800442423C04424200127A0000093D003A
:1018100058000020680000204004424201464FF07A
:101820000000FE4A106800F0380040EA0100106035
:101830007047FA49096821F00801F84A1160114619
:10184000096841EA000111607047F449096821F014
:101850001001F24A11601146096841EA0001116065
:101860007047EF48ED494860EE4848607047EC48E3
:10187000EA494860EB4848607047E848006940F032
:101880008000E64908617047E448006940F0800044
:10189000E249086170474FF00400E049C96801F06F
:1018A0000101012902D14FF0010011E0DB49C968B3
:1018B00011F0040F02D04FF0020009E0D749C968C7
:1018C00011F0100F02D04FF0030001E04FF00400C0
:1018D000704700B502464FF00403FFF7DCFF0346F4
:1018E00004E0FFF7D8FF0346A2F10102012B01D16A
:1018F000002AF6D10AB94FF00503184600BD30B5ED
:1019000004464FF004054FF43020FFF7E2FF054690
:10191000042D18D1C148006940F00200BF49086198
:1019200008464461006940F0400008614FF43020EF
:10193000FFF7CFFF0546B948006941F6FD7100EA9F
:101940000100B6490861284630BD10B54FF00404C7
:101950004FF43020FFF7BDFF0446042C17D1AF48E9
:10196000006940F00400AD4908610846006940F094
:10197000400008614FF43020FFF7ABFF0446A74852
:10198000006941F6FB7100EA0100A44908612046A4
:1019900010BD00B502464FF00403FFF77CFF03467D
:1019A00004E0FFF778FF0346A2F10102012B01D109
:1019B000002AF6D10AB94FF00503184600BD10B54C
:1019C0004FF004044FF43020FFF7E3FF0446042CEB
:1019D00017D19248006940F0040090490861084618
:1019E000006940F0400008614FF43020FFF7D1FF5C
:1019F00004468A48006941F6FB7100EA0100874904
:101A00000861204610BD4FF000008449C96911F0FB
:101A1000020F02D04FF0010001E04FF000007047CC
:101A200030B54FF0A5054FF00404FFF7ECFF08B107
:101A30004FF000054FF43020FFF74BFF0446042C15
:101A40003ED17748754988607648886008460069C5
:101A500040F0200008610846006940F0400008613D
:101A60004FF43020FFF735FF0446042C1ED16B489D
:101A7000006941F6DF7100EA010068490861084623
:101A8000006940F010000861674805804FF400507D
:101A9000FFF71FFF0446052C12D06048006941F68D
:101AA000EF7100EA01005D49086109E0052C07D0EB
:101AB0005A48006941F6EF7100EA01005749086190
:101AC000204630BDF0B504460D464FF004064FF0F9
:101AD00000074FF40050FFF7FCFE0646042E28D105
:101AE0004E48006940F001004C49086125804FF4E0
:101AF0000050FFF7EEFE0646042E12D104F1020755
:101B00004FEA154038804FF40050FFF7E2FE0646DA
:101B10004248006941F6FE7100EA01003F49086150
:101B200007E03E48006941F6FE7100EA01003B49CA
:101B300008613046F0BD70B504460D464FF004060E
:101B40004FF40050FFF7C5FE0646042E13D133486C
:101B5000006940F001003149086125804FF40050D0
:101B6000FFF7B7FE06462D48006941F6FE7100EA10
:101B700001002A490861304670BD70B505460E4621
:101B80004FF004044FF40050FFF7A3FE0446042C6A
:101B900019D1234821498860224888600846006995
:101BA00040F0100008612E804FF40050FFF791FEC6
:101BB0000446052C07D01948006941F6EF7100EA88
:101BC000010016490861204670BD2DE9F043044626
:101BD0004FF6FF763746B046B1464FF004056FEA40
:101BE0000404E6B2C4F30727C4F307484FEA1469B4
:101BF0004FF40050FFF76DFE0546042D4CD1084808
:101C000006498860074888600846006940F010006F
:101C10000861FF2E11D00548068009E0002002402F
:101C200023016745AB89EFCD00F8FF1F08F8FF1FC0
:101C30004FF40050FFF74DFE0546042D08D1FF2F4D
:101C400006D0884807804FF40050FFF742FE054653
:101C5000042D0AD1B8F1FF0F07D08348A0F8008007
:101C60004FF40050FFF735FE0546042D0AD1B9F1B7
:101C7000FF0F07D07D48A0F800904FF40050FFF709
:101C800028FE0546052D07D07948006941F6EF7119
:101C900000EA0100764908612846BDE8F08330B5C6
:101CA00005464FF004044FF43020FFF712FE0446BF
:101CB000042C46D16F486E4988606F48886008469A
:101CC000006940F0200008610846006940F04000CB
:101CD00008614FF43020FFF7FCFD0446042C26D1A8
:101CE0006348006941F6DF7100EA0100604908615C
:101CF0000846006940F01000086125B14FF000006F
:101D00005E49088003E04FF0A5005C4908804FF46D
:101D10003020FFF7DEFD0446052C12D05448006940
:101D200041F6EF7100EA01005149086109E0052C14
:101D300007D04F48006941F6DF7100EA01004C49C5
:101D40000861204630BDF0B505460E4617464FF0F7
:101D50000404484846498860474888604FF400506A
:101D6000FFF7B7FD0446042C1CD14148006940F040
:101D700010003F49086147F0F80040EA060040EAD9
:101D800005003F4908804FF40050FFF7A2FD0446CC
:101D9000052C07D03648006941F6EF7100EA0100D2
:101DA000334908612046F0BD3148C069800870475A
:101DB0002F48006A70474FF000002D49096811F064
:101DC000200F02D04FF0010001E04FF000007047FB
:101DD00031B1274A126942EA0002254B1A6105E037
:101DE000234A126922EA0002214B1A617047014618
:101DF0004FF0000001290AD11D4AD26912F0010FEB
:101E000002D04FF001000BE04FF0000008E0184A4C
:101E1000D2680A4202D04FF0010001E04FF000000A
:101E200070471349C86070474FF004001049C968F3
:101E300001F00101012902D14FF0010011E00C492C
:101E4000C96811F0040F02D04FF0020009E0084900
:101E5000C96811F0100F02D04FF0030001E04FF0FD
:101E6000040070470AF8FF1F0CF8FF1F0EF8FF1F51
:101E70000020024023016745AB89EFCD00F8FF1F2A
:101E800002F8FF1F00BF11E04FF400714248FFF756
:101E900003FA4FF47A70FEF7C5FC4FF400713E4828
:101EA000FFF7F8F94FF47A70FEF7BCFCECE700BFDF
:101EB00011E04FF480713848FFF7ECF94FF47A7075
:101EC000FEF7B0FC4FF480713348FFF7E5F94FF4AB
:101ED0007A70FEF7A7FCECE700BF0FE080212E48E8
:101EE000FFF7DAF94FF47A70FEF79CFC80212A485C
:101EF000FFF7D0F94FF47A70FEF794FCEEE700BFDD
:101F00000FE040212448FFF7C5F94FF47A70FEF73F
:101F100089FC40212048FFF7BFF94FF47A70FEF7A3
:101F200081FCEEE71FB500F0A1F800200123CDE908
:101F3000003002900346802218A10390AFF24100C6
:101F4000FEF760FA00200123CDE90030029003463D
:101F5000802214A10390AFF27F00FEF753FA002015
:101F60000090019002900346802210A10390AFF2EE
:101F7000C100FEF747FA002000900190029003464E
:101F800080220CA10390AFF20310FEF73BFAFEF79C
:101F9000E6FD002004B010BD001C01405461736BCD
:101FA000310000005461736B320000005461736BA8
:101FB000330000005461736B3400000008B54FF427
:101FC0007070ADF800004FF003008DF802004FF084
:101FD00010008DF8030069462948FFF79FF808BDF7
:101FE00010B500214FF00060FEF7FEFF4FF4407087
:101FF000FEF7B4FF10BD10B50420FFF70CF810BDBC
:1020000010B5FFF701FA4FF48030FFF71FFAFFF722
:1020100062FA0446012C24D10020FFF7A7FA002021
:10202000FFF7BAFAA002FFF7ACFA0220FFF7F6FBBF
:102030001020FFF70AFC4FF4E0112004FFF775FAB7
:102040000120FFF780FA00BF3920FFF722FA0028AD
:10205000FAD00220FFF77AFA00BFFFF782FA0828C9
:10206000FBD101218920FFF763FB10BD10B5FFF7FD
:10207000C7FFFFF7C0FFFFF7B3FFFFF79FFF10BDDC
:10208000001C014002F0FF0343EA032242EA02423D
:1020900000F030B810B5044610F0030F08BF11F07F
:1020A000030F40F015804FF0013E121FC0F20E806A
:1020B00051F8043BA3EB0E0C2CEA030C1CEACE1CDB
:1020C00008BF40F8043BF0D0A1F1040102F1040282
:1020D000521E08DB11F8013B002B00F8013BF7D141
:1020E000114600F005F8204610BD70477047704754
:1020F0004FF000020429C0F0128010F0030C00F031
:102100001B80CCF1040CBCF1020F18BF00F8012BAE
:10211000A8BF20F8022BA1EB0C0100F00DB85FEA7C
:10212000C17C24BF00F8012B00F8012B48BF00F848
:10213000012B70474FF0000200B5134694469646B7
:10214000203922BFA0E80C50A0E80C50B1F12001CA
:10215000BFF4F7AF090728BFA0E80C5048BF0CC078
:102160005DF804EB890028BF40F8042B08BF7047D6
:1021700048BF20F8022B11F0804F18BF00F8012B48
:102180007047754600F028F8AE460500694653468C
:1021900020F00700854618B020B5FEF76BF8BDE8C3
:1021A00020404FF000064FF000074FF000084FF0BE
:1021B000000B21F00701AC46ACE8C009ACE8C0094F
:1021C000ACE8C009ACE8C0098D4670470446AFF3DF
:1021D00000802046FDF7F5FF004870473845002095
:1021E000004870473C45002001491820ABBEFEE77F
:1021F00026000200704710B5FFF7F2FF4FF0000114
:10220000016010BD24220008000000206C000000C6
:102210006C010008902200086C0000202C4900008E
:10222000880100080000000000000000000000001D
:10223000000000000000000000000000000000009E
:10224000000000000000000000000000000000008E
:1022500000000000FFFFFFFF000000000000000082
:10226000004400000000000000000000000000002A
:102270000000000000000000AAAAAAAA00000000B6
:102280000102030401020304060708090204060808
:0400000508000131BD
:00000001FF
